{
  "contractName": "Forwarder",
  "abi": [
    {
      "constant": true,
      "inputs": [],
      "name": "parentAddress",
      "outputs": [
        {
          "name": "",
          "type": "address"
        }
      ],
      "payable": false,
      "stateMutability": "view",
      "type": "function"
    },
    {
      "inputs": [],
      "payable": false,
      "stateMutability": "nonpayable",
      "type": "constructor"
    },
    {
      "payable": true,
      "stateMutability": "payable",
      "type": "fallback"
    },
    {
      "anonymous": false,
      "inputs": [
        {
          "indexed": false,
          "name": "from",
          "type": "address"
        },
        {
          "indexed": false,
          "name": "value",
          "type": "uint256"
        },
        {
          "indexed": false,
          "name": "data",
          "type": "bytes"
        }
      ],
      "name": "ForwarderDeposited",
      "type": "event"
    },
    {
      "constant": false,
      "inputs": [
        {
          "name": "tokenContractAddress",
          "type": "address"
        }
      ],
      "name": "flushTokens",
      "outputs": [],
      "payable": false,
      "stateMutability": "nonpayable",
      "type": "function"
    },
    {
      "constant": false,
      "inputs": [],
      "name": "flush",
      "outputs": [],
      "payable": false,
      "stateMutability": "nonpayable",
      "type": "function"
    }
  ],
  "bytecode": "0x608060405234801561001057600080fd5b50336000806101000a81548173ffffffffffffffffffffffffffffffffffffffff021916908373ffffffffffffffffffffffffffffffffffffffff16021790555061052e806100606000396000f300608060405260043610610056576000357c0100000000000000000000000000000000000000000000000000000000900463ffffffff168062821de31461014e5780633ef13367146101a55780636b9f96ea146101e8575b6000809054906101000a900473ffffffffffffffffffffffffffffffffffffffff1673ffffffffffffffffffffffffffffffffffffffff166108fc349081150290604051600060405180830381858888f193505050501580156100bd573d6000803e3d6000fd5b507f69b31548dea9b3b707b4dff357d326e3e9348b24e7a6080a218a6edeeec48f9b3334600036604051808573ffffffffffffffffffffffffffffffffffffffff1673ffffffffffffffffffffffffffffffffffffffff16815260200184815260200180602001828103825284848281815260200192508082843782019150509550505050505060405180910390a1005b34801561015a57600080fd5b506101636101ff565b604051808273ffffffffffffffffffffffffffffffffffffffff1673ffffffffffffffffffffffffffffffffffffffff16815260200191505060405180910390f35b3480156101b157600080fd5b506101e6600480360381019080803573ffffffffffffffffffffffffffffffffffffffff169060200190929190505050610224565b005b3480156101f457600080fd5b506101fd610481565b005b6000809054906101000a900473ffffffffffffffffffffffffffffffffffffffff1681565b60008060008060009054906101000a900473ffffffffffffffffffffffffffffffffffffffff1673ffffffffffffffffffffffffffffffffffffffff163373ffffffffffffffffffffffffffffffffffffffff1614151561028457600080fd5b8392503091508273ffffffffffffffffffffffffffffffffffffffff166370a08231836040518263ffffffff167c0100000000000000000000000000000000000000000000000000000000028152600401808273ffffffffffffffffffffffffffffffffffffffff1673ffffffffffffffffffffffffffffffffffffffff168152602001915050602060405180830381600087803b15801561032557600080fd5b505af1158015610339573d6000803e3d6000fd5b505050506040513d602081101561034f57600080fd5b8101908080519060200190929190505050905060008114156103705761047b565b8273ffffffffffffffffffffffffffffffffffffffff1663a9059cbb6000809054906101000a900473ffffffffffffffffffffffffffffffffffffffff16836040518363ffffffff167c0100000000000000000000000000000000000000000000000000000000028152600401808373ffffffffffffffffffffffffffffffffffffffff1673ffffffffffffffffffffffffffffffffffffffff16815260200182815260200192505050602060405180830381600087803b15801561043457600080fd5b505af1158015610448573d6000803e3d6000fd5b505050506040513d602081101561045e57600080fd5b8101908080519060200190929190505050151561047a57600080fd5b5b50505050565b6000809054906101000a900473ffffffffffffffffffffffffffffffffffffffff1673ffffffffffffffffffffffffffffffffffffffff166108fc3073ffffffffffffffffffffffffffffffffffffffff16319081150290604051600060405180830381858888f193505050501580156104ff573d6000803e3d6000fd5b505600a165627a7a72305820c90286c193d60df4b3e780201873ca35f265c5c58e2c272e825776e2a6b210500029",
  "source": "pragma solidity ^0.4.18;\nimport \"./ERC20Interface.sol\";\n/**\n * Contract that will forward any incoming Ether to the creator of the contract\n //Hợp đồng sẽ chuyển tiếp mọi Ether đến cho người goi hợp đồng\n */\ncontract Forwarder {\n  // Address to which any funds sent to this contract will be forwarded\n  //Địa chỉ mà bất kỳ khoản tiền nào được gửi đến hợp đồng này sẽ được chuyển tiếp\n  address public parentAddress;\n  event ForwarderDeposited(address from, uint value, bytes data);\n\n  /**\n   * Create the contract, and sets the destination address to that of the creator\n   //Tạo hợp đồng và đặt địa chỉ đích thành địa chỉ của người sáng tạo\n   */\n  function Forwarder() public {\n    parentAddress = msg.sender;\n  }\n\n  /**\n   * Modifier that will execute internal code block only if the sender is the parent address\n   //Modifier sẽ chỉ thực hiện chặn mã nội bộ nếu người gửi là địa chỉ chính\n   */\n  modifier onlyParent {\n    if (msg.sender != parentAddress) {\n      revert();\n    }\n    _;\n  }\n\n  /**\n   * Default function; Gets called when Ether is deposited, and forwards it to the parent address\n   //Hàm mặc định; Được gọi khi Ether được gửi và chuyển tiếp đến địa chỉ gốc\n   */\n  function() public payable {\n    // throws on failure\n    parentAddress.transfer(msg.value);\n    // Fire off the deposited event if we can forward it\n    //Kích hoạt sự kiện được gửi nếu chúng tôi có thể chuyển tiếp sự kiện\n    ForwarderDeposited(msg.sender, msg.value, msg.data);\n  }\n\n  /**\n   * Execute a token transfer of the full balance from the forwarder token to the parent address\n   //Thực hiện chuyển mã thông báo toàn bộ số dư từ mã thông báo giao nhận đến địa chỉ gốc\n   * @param tokenContractAddress the address of the erc20 token contract\n   tokenContractThêm địa chỉ của hợp đồng token erc20\n\n   */\n  function flushTokens(address tokenContractAddress) public onlyParent {\n    ERC20Interface instance = ERC20Interface(tokenContractAddress);\n    var forwarderAddress = address(this);\n    var forwarderBalance = instance.balanceOf(forwarderAddress);\n    if (forwarderBalance == 0) {\n      return;\n    }\n    if (!instance.transfer(parentAddress, forwarderBalance)) {\n      revert();\n    }\n  }\n\n  /**\n   * It is possible that funds were sent to this address before the contract was deployed.\n   Có thể là số tiền đã được gửi đến địa chỉ này trước khi hợp đồng được triển khai.\n   * We can flush those funds to the parent address.\n   //Chúng tôi có thể chuyển các khoản tiền đó đến địa chỉ chính.\n   */\n  function flush() public {\n    // throws on failure\n    parentAddress.transfer(this.balance);\n  }\n}\n",
  "sourcePath": "/home/tai-loc/Desktop/duan/WalletSimple_chainos/project/contracts/Forwarder.sol",
  "compiler": {
    "name": "solc",
    "version": "0.4.24+commit.e67f0147.Emscripten.clang"
  },
  "schemaVersion": "2.0.1",
  "updatedAt": "2018-09-12T16:33:02.004Z"
}