{
  "contractName": "WalletSimple",
  "abi": [
    {
      "constant": true,
      "inputs": [
        {
          "name": "",
          "type": "uint256"
        }
      ],
      "name": "signers",
      "outputs": [
        {
          "name": "",
          "type": "address"
        }
      ],
      "payable": false,
      "stateMutability": "view",
      "type": "function"
    },
    {
      "constant": true,
      "inputs": [],
      "name": "safeMode",
      "outputs": [
        {
          "name": "",
          "type": "bool"
        }
      ],
      "payable": false,
      "stateMutability": "view",
      "type": "function"
    },
    {
      "inputs": [
        {
          "name": "allowedSigners",
          "type": "address[]"
        }
      ],
      "payable": false,
      "stateMutability": "nonpayable",
      "type": "constructor"
    },
    {
      "payable": true,
      "stateMutability": "payable",
      "type": "fallback"
    },
    {
      "anonymous": false,
      "inputs": [
        {
          "indexed": false,
          "name": "from",
          "type": "address"
        },
        {
          "indexed": false,
          "name": "value",
          "type": "uint256"
        },
        {
          "indexed": false,
          "name": "data",
          "type": "bytes"
        }
      ],
      "name": "Deposited",
      "type": "event"
    },
    {
      "anonymous": false,
      "inputs": [
        {
          "indexed": false,
          "name": "msgSender",
          "type": "address"
        }
      ],
      "name": "SafeModeActivated",
      "type": "event"
    },
    {
      "anonymous": false,
      "inputs": [
        {
          "indexed": false,
          "name": "msgSender",
          "type": "address"
        },
        {
          "indexed": false,
          "name": "otherSigner",
          "type": "address"
        },
        {
          "indexed": false,
          "name": "operation",
          "type": "bytes32"
        },
        {
          "indexed": false,
          "name": "toAddress",
          "type": "address"
        },
        {
          "indexed": false,
          "name": "value",
          "type": "uint256"
        },
        {
          "indexed": false,
          "name": "data",
          "type": "bytes"
        }
      ],
      "name": "Transacted",
      "type": "event"
    },
    {
      "constant": true,
      "inputs": [
        {
          "name": "signer",
          "type": "address"
        }
      ],
      "name": "isSigner",
      "outputs": [
        {
          "name": "",
          "type": "bool"
        }
      ],
      "payable": false,
      "stateMutability": "view",
      "type": "function"
    },
    {
      "constant": false,
      "inputs": [],
      "name": "createForwarder",
      "outputs": [
        {
          "name": "",
          "type": "address"
        }
      ],
      "payable": false,
      "stateMutability": "nonpayable",
      "type": "function"
    },
    {
      "constant": false,
      "inputs": [
        {
          "name": "toAddress",
          "type": "address"
        },
        {
          "name": "value",
          "type": "uint256"
        },
        {
          "name": "data",
          "type": "bytes"
        },
        {
          "name": "expireTime",
          "type": "uint256"
        },
        {
          "name": "sequenceId",
          "type": "uint256"
        },
        {
          "name": "operationHash",
          "type": "bytes32"
        },
        {
          "name": "signature",
          "type": "bytes"
        }
      ],
      "name": "sendMultiSig",
      "outputs": [],
      "payable": true,
      "stateMutability": "payable",
      "type": "function"
    },
    {
      "constant": false,
      "inputs": [
        {
          "name": "toAddress",
          "type": "address"
        },
        {
          "name": "value",
          "type": "uint256"
        },
        {
          "name": "tokenContractAddress",
          "type": "address"
        },
        {
          "name": "expireTime",
          "type": "uint256"
        },
        {
          "name": "sequenceId",
          "type": "uint256"
        },
        {
          "name": "signature",
          "type": "bytes"
        }
      ],
      "name": "sendMultiSigToken",
      "outputs": [],
      "payable": false,
      "stateMutability": "nonpayable",
      "type": "function"
    },
    {
      "constant": false,
      "inputs": [
        {
          "name": "forwarderAddress",
          "type": "address"
        },
        {
          "name": "tokenContractAddress",
          "type": "address"
        }
      ],
      "name": "flushForwarderTokens",
      "outputs": [],
      "payable": false,
      "stateMutability": "nonpayable",
      "type": "function"
    },
    {
      "constant": false,
      "inputs": [],
      "name": "activateSafeMode",
      "outputs": [],
      "payable": false,
      "stateMutability": "nonpayable",
      "type": "function"
    },
    {
      "constant": true,
      "inputs": [],
      "name": "getNextSequenceId",
      "outputs": [
        {
          "name": "",
          "type": "uint256"
        }
      ],
      "payable": false,
      "stateMutability": "view",
      "type": "function"
    }
  ],
  "bytecode": "0x60806040526000600160006101000a81548160ff02191690831515021790555034801561002b57600080fd5b5060405161152c38038061152c833981018060405281019080805182019291905050506003815114151561005e57600080fd5b806000908051906020019061007492919061007b565b5050610148565b8280548282559060005260206000209081019282156100f4579160200282015b828111156100f35782518260006101000a81548173ffffffffffffffffffffffffffffffffffffffff021916908373ffffffffffffffffffffffffffffffffffffffff1602179055509160200191906001019061009b565b5b5090506101019190610105565b5090565b61014591905b8082111561014157600081816101000a81549073ffffffffffffffffffffffffffffffffffffffff02191690555060010161010b565b5090565b90565b6113d5806101576000396000f300608060405260043610610099576000357c0100000000000000000000000000000000000000000000000000000000900463ffffffff1680630dcd7a6c146101335780632079fb9a146101fa5780632da03409146102675780637df73e27146102ca578063a0b7967b14610325578063a68a76cc14610350578063abe3219c146103a7578063dc77da37146103d6578063fc0f392d146104c4575b6000341115610131577f6e89d517057028190560dd200cf6bf792842861353d1173761dfa362e1c133f03334600036604051808573ffffffffffffffffffffffffffffffffffffffff1673ffffffffffffffffffffffffffffffffffffffff16815260200184815260200180602001828103825284848281815260200192508082843782019150509550505050505060405180910390a15b005b34801561013f57600080fd5b506101f8600480360381019080803573ffffffffffffffffffffffffffffffffffffffff16906020019092919080359060200190929190803573ffffffffffffffffffffffffffffffffffffffff1690602001909291908035906020019092919080359060200190929190803590602001908201803590602001908080601f01602080910402602001604051908101604052809392919081815260200183838082843782019150505050505091929192905050506104db565b005b34801561020657600080fd5b50610225600480360381019080803590602001909291905050506106cc565b604051808273ffffffffffffffffffffffffffffffffffffffff1673ffffffffffffffffffffffffffffffffffffffff16815260200191505060405180910390f35b34801561027357600080fd5b506102c8600480360381019080803573ffffffffffffffffffffffffffffffffffffffff169060200190929190803573ffffffffffffffffffffffffffffffffffffffff16906020019092919050505061070a565b005b3480156102d657600080fd5b5061030b600480360381019080803573ffffffffffffffffffffffffffffffffffffffff1690602001909291905050506107db565b604051808215151515815260200191505060405180910390f35b34801561033157600080fd5b5061033a61087e565b6040518082815260200191505060405180910390f35b34801561035c57600080fd5b506103656108d8565b604051808273ffffffffffffffffffffffffffffffffffffffff1673ffffffffffffffffffffffffffffffffffffffff16815260200191505060405180910390f35b3480156103b357600080fd5b506103bc610904565b604051808215151515815260200191505060405180910390f35b6104c2600480360381019080803573ffffffffffffffffffffffffffffffffffffffff16906020019092919080359060200190929190803590602001908201803590602001908080601f016020809104026020016040519081016040528093929190818152602001838380828437820191505050505050919291929080359060200190929190803590602001909291908035600019169060200190929190803590602001908201803590602001908080601f0160208091040260200160405190810160405280939291908181526020018383808284378201915050505050509192919290505050610917565b005b3480156104d057600080fd5b506104d9610b29565b005b6000806104e7336107db565b15156104f257600080fd5b878787878760405180807f45524332300000000000000000000000000000000000000000000000000000008152506005018673ffffffffffffffffffffffffffffffffffffffff1673ffffffffffffffffffffffffffffffffffffffff166c010000000000000000000000000281526014018581526020018473ffffffffffffffffffffffffffffffffffffffff1673ffffffffffffffffffffffffffffffffffffffff166c0100000000000000000000000002815260140183815260200182815260200195505050505050604051809103902091506105d58883858888610bbc565b508590508073ffffffffffffffffffffffffffffffffffffffff1663a9059cbb89896040518363ffffffff167c0100000000000000000000000000000000000000000000000000000000028152600401808373ffffffffffffffffffffffffffffffffffffffff1673ffffffffffffffffffffffffffffffffffffffff16815260200182815260200192505050602060405180830381600087803b15801561067c57600080fd5b505af1158015610690573d6000803e3d6000fd5b505050506040513d60208110156106a657600080fd5b810190808051906020019092919050505015156106c257600080fd5b5050505050505050565b6000818154811015156106db57fe5b906000526020600020016000915054906101000a900473ffffffffffffffffffffffffffffffffffffffff1681565b6000610715336107db565b151561072057600080fd5b8290508073ffffffffffffffffffffffffffffffffffffffff16633ef13367836040518263ffffffff167c0100000000000000000000000000000000000000000000000000000000028152600401808273ffffffffffffffffffffffffffffffffffffffff1673ffffffffffffffffffffffffffffffffffffffff168152602001915050600060405180830381600087803b1580156107be57600080fd5b505af11580156107d2573d6000803e3d6000fd5b50505050505050565b600080600090505b600080549050811015610873578273ffffffffffffffffffffffffffffffffffffffff1660008281548110151561081657fe5b9060005260206000200160009054906101000a900473ffffffffffffffffffffffffffffffffffffffff1673ffffffffffffffffffffffffffffffffffffffff1614156108665760019150610878565b80806001019150506107e3565b600091505b50919050565b6000806000809150600090505b600a8110156108cd5781600282600a811015156108a457fe5b015411156108c057600281600a811015156108bb57fe5b015491505b808060010191505061088b565b600182019250505090565b60006108e2610e0b565b604051809103906000f0801580156108fe573d6000803e3d6000fd5b50905090565b600160009054906101000a900460ff1681565b6000610922336107db565b151561092d57600080fd5b61093a8884848888610bbc565b90508773ffffffffffffffffffffffffffffffffffffffff16878760405180828051906020019080838360005b83811015610982578082015181840152602081019050610967565b50505050905090810190601f1680156109af5780820380516001836020036101000a031916815260200191505b5091505060006040518083038185875af19250505015156109cf57600080fd5b7f59bed9ab5d78073465dd642a9e3e76dfdb7d53bcae9d09df7d0b8f5234d5a8063382858b8b8b604051808773ffffffffffffffffffffffffffffffffffffffff1673ffffffffffffffffffffffffffffffffffffffff1681526020018673ffffffffffffffffffffffffffffffffffffffff1673ffffffffffffffffffffffffffffffffffffffff16815260200185600019166000191681526020018473ffffffffffffffffffffffffffffffffffffffff1673ffffffffffffffffffffffffffffffffffffffff16815260200183815260200180602001828103825283818151815260200191508051906020019080838360005b83811015610ae0578082015181840152602081019050610ac5565b50505050905090810190601f168015610b0d5780820380516001836020036101000a031916815260200191505b5097505050505050505060405180910390a15050505050505050565b610b32336107db565b1515610b3d57600080fd5b60018060006101000a81548160ff0219169083151502179055507f0909e8f76a4fd3e970f2eaef56c0ee6dfaf8b87c5b8d3f56ffce78e825a9115733604051808273ffffffffffffffffffffffffffffffffffffffff1673ffffffffffffffffffffffffffffffffffffffff16815260200191505060405180910390a1565b600080610bc98686610c67565b9050600160009054906101000a900460ff168015610bed5750610beb876107db565b155b15610bf757600080fd5b42841015610c0457600080fd5b610c0d83610d34565b610c16816107db565b1515610c2157600080fd5b3373ffffffffffffffffffffffffffffffffffffffff168173ffffffffffffffffffffffffffffffffffffffff161415610c5a57600080fd5b8091505095945050505050565b60008060008060418551141515610c7d57600080fd5b602085015192506040850151915060ff6041860151169050601b8160ff161015610ca857601b810190505b600186828585604051600081526020016040526040518085600019166000191681526020018460ff1660ff1681526020018360001916600019168152602001826000191660001916815260200194505050505060206040516020810390808403906000865af1158015610d1f573d6000803e3d6000fd5b50505060206040510351935050505092915050565b600080610d40336107db565b1515610d4b57600080fd5b60009150600090505b600a811015610db35782600282600a81101515610d6d57fe5b01541415610d7a57600080fd5b600282600a81101515610d8957fe5b0154600282600a81101515610d9a57fe5b01541015610da6578091505b8080600101915050610d54565b600282600a81101515610dc257fe5b0154831015610dd057600080fd5b612710600283600a81101515610de257fe5b015401831115610df157600080fd5b82600283600a81101515610e0157fe5b0181905550505050565b60405161058e80610e1c833901905600608060405234801561001057600080fd5b50336000806101000a81548173ffffffffffffffffffffffffffffffffffffffff021916908373ffffffffffffffffffffffffffffffffffffffff16021790555061052e806100606000396000f300608060405260043610610056576000357c0100000000000000000000000000000000000000000000000000000000900463ffffffff168062821de31461014e5780633ef13367146101a55780636b9f96ea146101e8575b6000809054906101000a900473ffffffffffffffffffffffffffffffffffffffff1673ffffffffffffffffffffffffffffffffffffffff166108fc349081150290604051600060405180830381858888f193505050501580156100bd573d6000803e3d6000fd5b507f69b31548dea9b3b707b4dff357d326e3e9348b24e7a6080a218a6edeeec48f9b3334600036604051808573ffffffffffffffffffffffffffffffffffffffff1673ffffffffffffffffffffffffffffffffffffffff16815260200184815260200180602001828103825284848281815260200192508082843782019150509550505050505060405180910390a1005b34801561015a57600080fd5b506101636101ff565b604051808273ffffffffffffffffffffffffffffffffffffffff1673ffffffffffffffffffffffffffffffffffffffff16815260200191505060405180910390f35b3480156101b157600080fd5b506101e6600480360381019080803573ffffffffffffffffffffffffffffffffffffffff169060200190929190505050610224565b005b3480156101f457600080fd5b506101fd610481565b005b6000809054906101000a900473ffffffffffffffffffffffffffffffffffffffff1681565b60008060008060009054906101000a900473ffffffffffffffffffffffffffffffffffffffff1673ffffffffffffffffffffffffffffffffffffffff163373ffffffffffffffffffffffffffffffffffffffff1614151561028457600080fd5b8392503091508273ffffffffffffffffffffffffffffffffffffffff166370a08231836040518263ffffffff167c0100000000000000000000000000000000000000000000000000000000028152600401808273ffffffffffffffffffffffffffffffffffffffff1673ffffffffffffffffffffffffffffffffffffffff168152602001915050602060405180830381600087803b15801561032557600080fd5b505af1158015610339573d6000803e3d6000fd5b505050506040513d602081101561034f57600080fd5b8101908080519060200190929190505050905060008114156103705761047b565b8273ffffffffffffffffffffffffffffffffffffffff1663a9059cbb6000809054906101000a900473ffffffffffffffffffffffffffffffffffffffff16836040518363ffffffff167c0100000000000000000000000000000000000000000000000000000000028152600401808373ffffffffffffffffffffffffffffffffffffffff1673ffffffffffffffffffffffffffffffffffffffff16815260200182815260200192505050602060405180830381600087803b15801561043457600080fd5b505af1158015610448573d6000803e3d6000fd5b505050506040513d602081101561045e57600080fd5b8101908080519060200190929190505050151561047a57600080fd5b5b50505050565b6000809054906101000a900473ffffffffffffffffffffffffffffffffffffffff1673ffffffffffffffffffffffffffffffffffffffff166108fc3073ffffffffffffffffffffffffffffffffffffffff16319081150290604051600060405180830381858888f193505050501580156104ff573d6000803e3d6000fd5b505600a165627a7a72305820c90286c193d60df4b3e780201873ca35f265c5c58e2c272e825776e2a6b210500029a165627a7a72305820b836e47f731d9df06bda12371e57260ce195a61e8705c9d1d30895f7fe4542bf0029",
  "source": "pragma solidity ^0.4.18;\r\nimport \"./Forwarder.sol\";\r\nimport \"./ERC20Interface.sol\";\r\n/**\r\n *\r\n * WalletSimple\r\n * ============\r\n *\r\n * Basic multi-signer wallet designed for use in a co-signing environment where 2 signatures are required to move funds.\r\n\r\n //Ví đa dấu cơ bản được thiết kế để sử dụng trong môi trường đồng ký, trong đó có 2 chữ ký được yêu cầu để chuyển tiền.\r\n \r\n * Typically used in a 2-of-3 signing configuration. Uses ecrecover to allow for 2 signatures in a single transaction.\r\n //Thường được sử dụng trong cấu hình ký 2/3. Sử dụng ecrecover để cho phép 2 chữ ký trong một giao dịch duy nhất.\r\n *\r\n * The first signature is created on the operation hash (see Data Formats) and passed to sendMultiSig/sendMultiSigToken\r\n// Chữ ký đầu tiên được tạo trên băm hoạt động (xem Định dạng dữ liệu) và được truyền đến để gửiMultiSig / sendMultiSigToken\r\n * The signer is determined by verifyMultiSig().\r\n //Người ký được xác định bằng verifyMultiSig ().\r\n *\r\n * The second signature is created by the submitter of the transaction and determined by msg.signer.\r\n//Chữ ký thứ hai được tạo bởi người gửi giao dịch và được xác định bởi msg.signer.\r\n *\r\n * Data Formats\r\n * ============\r\n *\r\n * The signature is created with ethereumjs-util.ecsign(operationHash).\r\n //Chữ ký được tạo ra với ethereumjs-util.ecsign (operationHash).\r\n * Like the eth_sign RPC call, it packs the values as a 65-byte array of [r, s, v].\r\n //Giống như cuộc gọi RPC eth_sign, nó gói các giá trị như một mảng 65 byte của [r, s, v].\r\n\r\n * Unlike eth_sign, the message is not prefixed.\r\n// Không giống như eth_sign, thông báo không được thêm tiền tố.\r\n *\r\n * The operationHash the result of keccak256(prefix, toAddress, value, data, expireTime).\r\n //Các hoạt độngHash kết quả của keccak256 (tiền tố, toAddress, giá trị, dữ liệu, expireTime).\r\n * For ether transactions, `prefix` is \"ETHER\".\r\n //Đối với các giao dịch ête, `tiền tố` là\" ETHER \".\r\n * For token transaction, `prefix` is \"ERC20\" and `data` is the tokenContractAddress.\r\n// Đối với giao dịch mã thông báo, `tiền tố` là\" ERC20 \"và` dữ liệu` là tokenContractAddress.\r\n *\r\n *\r\n */\r\ncontract WalletSimple {\r\n  // Events\r\n  event Deposited(address from, uint value, bytes data);\r\n  event SafeModeActivated(address msgSender);\r\n  event Transacted(\r\n    address msgSender, // Address of the sender of the message initiating the transaction\r\n    //Địa chỉ của người gửi tin nhắn bắt đầu giao dịch\r\n    address otherSigner, // Address of the signer (second signature) used to initiate the transaction\r\n//    Địa chỉ của người ký (chữ ký thứ hai) được sử dụng để bắt đầu giao dịch\r\n    bytes32 operation, // Operation hash (see Data Formats)\r\n    //Băm hoạt động (xem Định dạng dữ liệu)\r\n\r\n    address toAddress, // The address the transaction was sent to\r\n   //Địa chỉ giao dịch đã được gửi tới\r\n\r\n    uint value, // Amount of Wei sent to the address\r\n    //Số tiền của Wei được gửi đến địa chỉ\r\n    bytes data // Data sent when invoking the transaction\r\n    //Dữ liệu được gửi khi gọi giao dịch\r\n  );\r\n\r\n  // Public fields\r\n  //cac truong cong khai\r\n  address[] public signers; // The addresses that can co-sign transactions on the wallet\r\n //Các địa chỉ có thể đồng ký giao dịch trên ví\r\n\r\n  bool public safeMode = false; // When active, wallet may only send to signer addresses\r\n//Khi hoạt động, ví chỉ có thể gửi đến địa chỉ người ký\r\n\r\n  // Internal fields\r\n  //Các trường nội bộ\r\n  uint constant SEQUENCE_ID_WINDOW_SIZE = 10;\r\n  uint[10] recentSequenceIds;\r\n\r\n  /**\r\n   * Set up a simple multi-sig wallet by specifying the signers allowed to be used on this wallet.\r\n   //Thiết lập ví đa sig đơn giản bằng cách chỉ định người ký được phép sử dụng trên ví này.\r\n   * 2 signers will be required to send a transaction from this wallet.\r\n   //2 người ký sẽ được yêu cầu gửi một giao dịch từ ví này.\r\n   * Note: The sender is NOT automatically added to the list of signers.\r\n   //Lưu ý: Người gửi KHÔNG được tự động thêm vào danh sách người ký.\r\n   * Signers CANNOT be changed once they are set\r\n   //Người ký không thể thay đổi sau khi được đặt\r\n   *\r\n   * @param allowedSigners An array of signers on the wallet\r\n   //allowedSigners Một mảng người ký trên ví\r\n\r\n   */\r\n  function WalletSimple(address[] allowedSigners) public {\r\n    if (allowedSigners.length != 3) {\r\n      // Invalid number of signers\r\n      //// Số lượng người ký không hợp lệ\r\n\r\n      revert();\r\n    }\r\n    signers = allowedSigners;\r\n  }\r\n\r\n  /**\r\n   * Determine if an address is a signer on this wallet\r\n   //Xác định xem địa chỉ có phải là người ký trên ví này không\r\n   * @param signer address to check\r\n   //địa chỉ người ký để kiểm tra\r\n\r\n   * returns boolean indicating whether address is signer or not\r\n   //trả về boolean cho biết địa chỉ là người ký hay không\r\n   */\r\n  function isSigner(address signer) public view returns (bool) {\r\n    // Iterate through all signers on the wallet and\r\n    // Lặp lại tất cả các người ký trên ví và\r\n\r\n    for (uint i = 0; i < signers.length; i++) {\r\n      if (signers[i] == signer) {\r\n        return true;\r\n      }\r\n    }\r\n    return false;\r\n  }\r\n\r\n  /**\r\n   * Modifier that will execute internal code block only if the sender is an authorized signer on this wallet\r\n   */\r\n   //Công cụ sửa đổi sẽ thực thi chặn mã nội bộ chỉ khi người gửi là người ký được ủy quyền trên ví tiền này\r\n\r\n  modifier onlySigner {\r\n    if (!isSigner(msg.sender)) {\r\n      revert();\r\n    }\r\n    _;\r\n  }\r\n\r\n  /**\r\n   * Gets called when a transaction is received without calling a method\r\n   //Được gọi khi nhận được một giao dịch mà không cần gọi phương thức\r\n   */\r\n  function() public payable {\r\n    if (msg.value > 0) {\r\n      // Fire deposited event if we are receiving funds\r\n      // Sự kiện gửi tiền nếu chúng tôi nhận tiền\r\n\r\n      Deposited(msg.sender, msg.value, msg.data);\r\n    }\r\n  }\r\n\r\n  /**\r\n   * Create a new contract (and also address) that forwards funds to this contract\r\n  // Tạo hợp đồng mới (và cả địa chỉ) chuyển tiền vào hợp đồng này\r\n\r\n   * returns address of newly created forwarder address\r\n   //trả về địa chỉ của địa chỉ giao nhận mới được tạo\r\n   */\r\n  function createForwarder() public returns (address) {\r\n    return new Forwarder();\r\n  }\r\n\r\n  /**\r\n   * Execute a multi-signature transaction from this wallet using 2 signers: one from msg.sender and the other from ecrecover.\r\n   //Thực hiện giao dịch đa chữ ký từ ví này bằng cách sử dụng 2 người ký: một từ msg.sender và một từ ecrecover.\r\n   * Sequence IDs are numbers starting from 1. They are used to prevent replay attacks and may not be repeated.\r\n   //ID chuỗi là số bắt đầu từ 1. Chúng được sử dụng để ngăn chặn các cuộc tấn công phát lại và có thể không được lặp lại.\r\n\r\n   *\r\n   * @param toAddress the destination address to send an outgoing transaction\r\n   //toAddress địa chỉ đích để gửi một giao dịch gửi đi\r\n\r\n   * @param value the amount in Wei to be sent\r\n   //giá trị số tiền trong Wei được gửi\r\n\r\n   * @param data the data to send to the toAddress when invoking the transaction\r\n   //dữ liệu để gửi đến toAddress khi gọi giao dịch\r\n\r\n   * @param expireTime the number of seconds since 1970 for which this transaction is valid\r\n   //expireTime số giây kể từ năm 1970 mà giao dịch này hợp lệ\r\n\r\n   * @param sequenceId the unique sequence id obtainable from getNextSequenceId\r\n   //id chuỗi duy nhất có thể lấy từ getNextSequenceId\r\n   * @param signature see Data Formats\r\n   //xem Định dạng dữ liệu\r\n   */\r\n  function sendMultiSig(\r\n      address toAddress,\r\n      uint value,\r\n      bytes data,\r\n      uint expireTime,\r\n      uint sequenceId,\r\n      bytes32 operationHash,\r\n      bytes signature\r\n  ) public payable onlySigner {\r\n    // Verify the other signer\r\n    //Xác minh người ký khác\r\n    \r\n    var otherSigner = verifyMultiSig(toAddress, operationHash, signature, expireTime, sequenceId);\r\n\r\n    // Success, send the transaction\r\n    if (!(toAddress.call.value(value)(data))) {\r\n      // Failed executing transaction\r\n      //Giao dịch thực thi không thành công\r\n\r\n      revert();\r\n    }\r\n    Transacted(msg.sender, otherSigner, operationHash, toAddress, value, data);\r\n  }\r\n  \r\n  /**\r\n   * Execute a multi-signature token transfer from this wallet using 2 signers: one from msg.sender and the other from ecrecover.\r\n   \r\n   * Sequence IDs are numbers starting from 1. They are used to prevent replay attacks and may not be repeated.\r\n   *\r\n   * @param toAddress the destination address to send an outgoing transaction\r\n   * @param value the amount in tokens to be sent\r\n   * @param tokenContractAddress the address of the erc20 token contract\r\n   * @param expireTime the number of seconds since 1970 for which this transaction is valid\r\n   * @param sequenceId the unique sequence id obtainable from getNextSequenceId\r\n   * @param signature see Data Formats\r\n   */\r\n  function sendMultiSigToken(\r\n      address toAddress,\r\n      uint value,\r\n      address tokenContractAddress,\r\n      uint expireTime,\r\n      uint sequenceId,\r\n      bytes signature\r\n  ) public onlySigner {\r\n    // Verify the other signer\r\n    var operationHash = keccak256(\"ERC20\", toAddress, value, tokenContractAddress, expireTime, sequenceId);\r\n    \r\n    verifyMultiSig(toAddress, operationHash, signature, expireTime, sequenceId);\r\n    \r\n    ERC20Interface instance = ERC20Interface(tokenContractAddress);\r\n    if (!instance.transfer(toAddress, value)) {\r\n        revert();\r\n    }\r\n  }\r\n  \r\n  /**\r\n   * Execute a token flush from one of the forwarder addresses. This transfer needs only a single signature and can be done by any signer\r\n   //Thực thi mã thông báo từ một trong các địa chỉ giao nhận. Việc chuyển này chỉ cần một chữ ký duy nhất và có thể được thực hiện bởi bất kỳ người ký nào\r\n   *\r\n   * @param forwarderAddress the address of the forwarder address to flush the tokens from\r\n   //forwarderThêm địa chỉ của địa chỉ giao nhận để xóa các thẻ từ\r\n   * @param tokenContractAddress the address of the erc20 token contract\r\n   //tokenContractThêm địa chỉ của hợp đồng token erc20\r\n   */\r\n  function flushForwarderTokens(\r\n    address forwarderAddress, \r\n    address tokenContractAddress\r\n  ) public onlySigner {\r\n    Forwarder forwarder = Forwarder(forwarderAddress);\r\n    forwarder.flushTokens(tokenContractAddress);\r\n  }\r\n\r\n  /**\r\n   * Do common multisig verification for both eth sends and erc20token transfers\r\n   //Thực hiện xác minh đa nhân phổ biến cho cả eth gửi và chuyển giao erc20token\r\n   *\r\n   * @param toAddress the destination address to send an outgoing transaction\r\n   * @param operationHash see Data Formats\r\n   //operationHash xem Định dạng dữ liệu\r\n\r\n   * @param signature see Data Formats\r\n   //* @param signature xem Định dạng Dữ liệu\r\n\r\n   * @param expireTime the number of seconds since 1970 for which this transaction is valid\r\n   //* @param expireTime số giây kể từ năm 1970 mà giao dịch này hợp lệ\r\n\r\n   * @param sequenceId the unique sequence id obtainable from getNextSequenceId\r\n   //* @param sequenceId id trình tự duy nhất có thể lấy từ getNextSequenceId\r\n\r\n   * returns address that has created the signature\r\n   //* trả về địa chỉ đã tạo chữ ký\r\n\r\n   */\r\n  function verifyMultiSig(\r\n      address toAddress,\r\n      bytes32 operationHash,\r\n      bytes signature,\r\n      uint expireTime,\r\n      uint sequenceId\r\n  ) private returns (address) {\r\n\r\n    var otherSigner = recoverAddressFromSignature(operationHash, signature);\r\n\r\n    // Verify if we are in safe mode. In safe mode, the wallet can only send to signers\r\n    //// Xác minh xem chúng tôi có ở chế độ an toàn không. Ở chế độ an toàn, ví chỉ có thể gửi cho người ký\r\n    if (safeMode && !isSigner(toAddress)) {\r\n      // We are in safe mode and the toAddress is not a signer. Disallow!\r\n      //// Chúng tôi đang ở trong chế độ an toàn và toAddress không phải là người ký tên. Không cho phép!\r\n      revert();\r\n    }\r\n    // Verify that the transaction has not expired\r\n    //// Xác minh rằng giao dịch chưa hết hạn\r\n    //\r\n    if (expireTime < block.timestamp) {\r\n      // Transaction expired\r\n      // Giao dịch đã hết hạn\r\n\r\n      revert();\r\n    }\r\n\r\n    // Try to insert the sequence ID. Will revert if the sequence id was invalid\r\n    //// Thử chèn ID trình tự. Sẽ hoàn nguyên nếu id trình tự không hợp lệ\r\n    tryInsertSequenceId(sequenceId);\r\n\r\n    if (!isSigner(otherSigner)) {\r\n      // Other signer not on this wallet or operation does not match arguments\r\n      //// Người ký khác không phải trên ví hoặc hoạt động này không khớp với đối số\r\n      revert();\r\n    }\r\n    if (otherSigner == msg.sender) {\r\n      // Cannot approve own transaction\r\n      //// Không thể phê duyệt giao dịch của riêng\r\n\r\n      revert();\r\n    }\r\n\r\n    return otherSigner;\r\n  }\r\n\r\n  /**\r\n   * Irrevocably puts contract into safe mode. When in this mode, transactions may only be sent to signing addresses.\r\n   //* Không thể hủy bỏ hợp đồng vào chế độ an toàn. Khi ở chế độ này, các giao dịch chỉ có thể được gửi đến các địa chỉ ký.\r\n   */\r\n  function activateSafeMode() public onlySigner {\r\n    safeMode = true;\r\n    SafeModeActivated(msg.sender);\r\n  }\r\n\r\n  /**\r\n   * Gets signer's address using ecrecover\r\n   //Nhận địa chỉ của người ký sử dụng ecrecover\r\n   * @param operationHash see Data Formats\r\n   //* @param operationHash xem Định dạng Dữ liệu\r\n   * @param signature see Data Formats\r\n   * @param signature xem Định dạng Dữ liệu\r\n\r\n   * returns address recovered from the signature\r\n   * trả về địa chỉ được thu hồi từ chữ ký\r\n\r\n   */\r\n  function recoverAddressFromSignature(\r\n    bytes32 operationHash,\r\n    bytes signature\r\n  ) private pure returns (address) {\r\n    if (signature.length != 65) {\r\n      revert();\r\n    }\r\n    // We need to unpack the signature, which is given as an array of 65 bytes (like eth.sign)\r\n    //// Chúng ta cần giải nén chữ ký, được cho dưới dạng một mảng gồm 65 byte (như eth.sign)\r\n\r\n    bytes32 r;\r\n    bytes32 s;\r\n    uint8 v;\r\n    assembly {\r\n      r := mload(add(signature, 32))\r\n      s := mload(add(signature, 64))\r\n      v := and(mload(add(signature, 65)), 255)\r\n    }\r\n    if (v < 27) {\r\n      v += 27; // Ethereum versions are 27 or 28 as opposed to 0 or 1 which is submitted by some signing libs\r\n    }\r\n    return ecrecover(operationHash, v, r, s);\r\n  }\r\n\r\n  /**\r\n   * Verify that the sequence id has not been used before and inserts it. Throws if the sequence ID was not accepted.\r\n   //* Xác minh rằng id trình tự chưa được sử dụng trước đó và chèn nó vào. Ném nếu ID chuỗi không được chấp nhận.\r\n\r\n   * We collect a window of up to 10 recent sequence ids, and allow any sequence id that is not in the window and\r\n   //* Chúng tôi thu thập một cửa sổ lên đến 10 id chuỗi gần đây và cho phép bất kỳ id trình tự nào không có trong cửa sổ và\r\n\r\n   * greater than the minimum element in the window.\r\n   * lớn hơn phần tử tối thiểu trong cửa sổ.\r\n\r\n   * @param sequenceId to insert into array of stored ids\r\n   //* @param sequenceId để chèn vào mảng các id được lưu trữ\r\n\r\n   */\r\n  function tryInsertSequenceId(uint sequenceId) private onlySigner {\r\n    // Keep a pointer to the lowest value element in the window\r\n    //// Giữ con trỏ đến phần tử giá trị thấp nhất trong cửa sổ\r\n\r\n    uint lowestValueIndex = 0;\r\n    for (uint i = 0; i < SEQUENCE_ID_WINDOW_SIZE; i++) {\r\n      if (recentSequenceIds[i] == sequenceId) {\r\n        // This sequence ID has been used before. Disallow!\r\n        //// ID chuỗi này đã được sử dụng trước đó. Không cho phép!\r\n\r\n        revert();\r\n      }\r\n      if (recentSequenceIds[i] < recentSequenceIds[lowestValueIndex]) {\r\n        lowestValueIndex = i;\r\n      }\r\n    }\r\n    if (sequenceId < recentSequenceIds[lowestValueIndex]) {\r\n      // The sequence ID being used is lower than the lowest value in the window\r\n     //// ID trình tự được sử dụng thấp hơn giá trị thấp nhất trong cửa sổ\r\n\r\n      // so we cannot accept it as it may have been used before\r\n      //// vì vậy chúng tôi không thể chấp nhận nó vì nó có thể đã được sử dụng trước đó\r\n\r\n      revert();\r\n    }\r\n    if (sequenceId > (recentSequenceIds[lowestValueIndex] + 10000)) {\r\n      // Block sequence IDs which are much higher than the lowest value\r\n      //// Chặn ID chuỗi cao hơn nhiều so với giá trị thấp nhất\r\n\r\n      // This prevents people blocking the contract by using very large sequence IDs quickly\r\n      //// Điều này ngăn chặn mọi người chặn hợp đồng bằng cách sử dụng ID chuỗi rất lớn nhanh chóng\r\n\r\n      revert();\r\n    }\r\n    recentSequenceIds[lowestValueIndex] = sequenceId;\r\n  }\r\n\r\n  /**\r\n   * Gets the next available sequence ID for signing when using executeAndConfirm\r\n   //* Nhận ID chuỗi khả dụng tiếp theo để ký khi sử dụng executeAndConfirm\r\n   * returns the sequenceId one higher than the highest currently stored\r\n  //* trả về dãy thứ tự cao hơn giá trị cao nhất hiện được lưu trữ\r\n  */\r\n  function getNextSequenceId() public view returns (uint) {\r\n    uint highestSequenceId = 0;\r\n    for (uint i = 0; i < SEQUENCE_ID_WINDOW_SIZE; i++) {\r\n      if (recentSequenceIds[i] > highestSequenceId) {\r\n        highestSequenceId = recentSequenceIds[i];\r\n      }\r\n    }\r\n    return highestSequenceId + 1;\r\n  }\r\n}",
  "sourcePath": "/home/tai-loc/Desktop/duan/WalletSimple_chainos/project/contracts/WalletSimple.sol",
  "compiler": {
    "name": "solc",
    "version": "0.4.24+commit.e67f0147.Emscripten.clang"
  },
  "schemaVersion": "2.0.1",
  "updatedAt": "2018-09-12T16:33:02.475Z"
}